:020000040800F2
:10000000604E00200101000897140008DB0D000875
:1000100095140008E50A00083D24000800000000CF
:10002000000000000000000000000000E9180008C7
:10003000390B00080000000079170008FD190008BE
:100040001B0100081B0100081B0100081B01000820
:100050001B0100081B0100081B0100081B01000810
:100060001B0100081B0100081B0100081B01000800
:100070001B0100081B0100081B0100081B010008F0
:100080001B0100081B0100081B0100081B010008E0
:100090001B0100081B0100081B0100083D0B0008A4
:1000A0001B0100081B0100081B0100081B010008C0
:1000B000D91A0008F11C00085D1D00081B0100088A
:1000C0001B0100081B0100081B0100081B010008A0
:1000D0001B0100081B010008812100081B0100080A
:1000E0001B0100081B0100081B010008DFF80CD0F1
:1000F00000F05EFA00480047AD360008604E002070
:100100000648804706480047FEE7FEE7FEE7FEE7B1
:10011000FEE7FEE7FEE7FEE7FEE7FEE7011A00085E
:10012000ED00000840EA01039B0703D009E008C97D
:10013000121F08C0042AFAD203E011F8013B00F8AC
:10014000013B521EF9D27047D2B201E000F8012BF8
:10015000491EFBD270470022F6E710B513460A4647
:1001600004461946FFF7F0FF204610BD30B505469E
:100170002A460B4612F8010B13F8014B08B1A042B6
:10018000F8D01CB1002802D06D1CF1E7284630BD24
:10019000CAB2401E10F8011F8A4202D00029F9D1CC
:1001A00000207047421C10F8011B0029FBD1801A67
:1001B000704730B50B46014600202022012409E09B
:1001C00021FA02F59D4205D303FA02F5491B04FA10
:1001D00002F52844151EA2F10102F1DC30BD2DE923
:1001E000F05F0546002092469B46884606468146BB
:1001F00040241BE0284641464746224600F0F9F9D4
:1002000053465A46C01A914110D311461846224609
:1002100000F0E0F92D1A67EB01084F462246012055
:10022000002100F0D7F917EB00094E41201EA4F180
:100230000104DFDC484631462A464346BDE8F09FCC
:100240002DE9FE4F804681EA0300C00F0C46009066
:1002500021F0004123F00045B8EB0200A94105D28E
:100260004046214690461C460B46024623F000407D
:10027000104347D0270DC7F30A00C3F30A51029079
:10028000401A019040286BDAC3F3130040F4801B3E
:100290000098924620B10023D2EB030A63EB0B0BCC
:1002A00001985946C0F14002504600F093F90646C5
:1002B0000D4650465946019A00F0ABF910EB080084
:1002C0006141002487EA115284EAE7731A4340D05F
:1002D000009A62B3019A012A4FEA075215DC001B0B
:1002E00061EB02014FF0004202EA0752CDE9004201
:1002F000001C41F5801132462B4600F0ABF903B0EB
:10030000BDE8F08F40462146F9E7001B61EB020192
:10031000001C41F5801300185B412018A2F500175E
:1003200047EB030140EAD570B6196D4111E06D0845
:100330004FEA360645EAC0754FEA0752001B61EBEB
:100340000201001C41F5801149084FEA30000019F4
:10035000514132462B4603B0BDE8F04F00F06BB977
:100360000098012240000023D0EB020263EBE0730F
:10037000009821464FEAE074B8EB000061EB0401FD
:10038000E9E783F000435BE781F0004158E72DE99E
:10039000FE4F81EA030404F0004421F00041009480
:1003A0004FF0000B23F0004350EA01045ED052EA04
:1003B00003045BD0C3F30A54C1F30A552C44A4F2DE
:1003C000F3340194A0FB0254C1F3130141F48011F2
:1003D000C3F3130343F4801301FB024400FB034EF9
:1003E000840A970A44EA815447EA8357A4FB0768C2
:1003F00002958D0A05FB07854FEA932C04FB0C54EC
:100400002705029D4FEA065847EA1637B5EB08055F
:100410006EEB070C870E920E47EA811742EA8312B1
:10042000A7FB0201B6EB0B0164EB00042B0D43EAC2
:100430000C335E1844EB1C50DA465146E7FB0201D0
:10044000C5F313044FEA0B3343EA14534FEA043263
:10045000019C43EA0603A4F10C040294009CCDE93C
:1004600000B400F0F7F803B0BDE8F08F00200146BB
:10047000F9E72DE9F04D81EA030404F0004B21F087
:10048000004514464FF0000A23F0004150EA0502EF
:1004900020D054EA01021DD0C5F30A570246C5F325
:1004A0001303C1F31300C1F30A5640F4801543F45B
:1004B0008013A7EB0608101BD64608F2FD3873EB35
:1004C000050002D308F1010801E092185B41B8F180
:1004D000000F03DA00200146BDE8F08D00204FF444
:1004E0008011064684460EE0171B73EB050705D303
:1004F000121B63EB050306434CEA010C49084FEA63
:10050000300092185B4150EA0107EDD152EA030036
:1005100012D082EA040083EA0501084305D0101BCB
:10052000AB4106D20122002306E000224FF0004337
:1005300002E06FF0010253101AEB06004CEB085179
:1005400010EB0A0041EB0B01BDE8F04D00F073B871
:10055000C1F30A52C1F3130140F2FF3341F4801199
:100560009A4202DA00200146704740F233439A4231
:10057000A2F2334202DC524200F03BB800F02AB84B
:1005800030B5041E71F1000404DB4FF0004440421A
:1005900064EB0101141E73F1000405DB1C464FF0EF
:1005A0000043524263EB0403994208BF904230BDBE
:1005B000064C074D06E0E06840F0010394E80700B0
:1005C00098471034AC42F6D3FFF794FD3858000832
:1005D00058580008202A04DB203A00FA02F10020D3
:1005E00070479140C2F1200320FA03F31943904071
:1005F0007047202A04DB203A21FA02F000217047DC
:1006000021FA02F3D040C2F120029140084319467A
:100610007047202A06DBCB17203A41FA02F043EA62
:10062000E07306E041FA02F3D040C2F120029140AB
:1006300008431946704710B5141E73F1000408DA18
:10064000401C41F1000192185B411A4301D120F096
:10065000010010BD2DE9F04D92469B4611B1B1FA53
:1006600081F202E0B0FA80F220329046FFF7B2FF4A
:1006700004460F4640EA0A0041EA0B0153465A4637
:10068000084313D0114653EA010019D0C8F14002C3
:100690005046FFF7AEFF05460E46504659464246C5
:1006A000FFF798FF084305D0012004E020463946B3
:1006B000BDE8F08D0020054346EAE0762C43374341
:1006C0000A986305E40AA0EB08000022FD0A44EA48
:1006D00047540A3002D500200146E9E70105101908
:1006E0006941DDE9084500196941BDE8F04DA2E71F
:1006F00070B58C1810F8015B15F0070301D110F8E4
:10070000013B2A1106D110F8012B03E010F8016B10
:1007100001F8016B5B1EF9D12B0705D40023521E93
:100720000DD401F8013BFAE710F8013BCB1A921CFB
:1007300003E013F8015B01F8015B521EF9D5A142F9
:10074000D8D3002070BD21B1826842F001028260DE
:1007500003E0826822F001028260704710B504460F
:100760001248844208D10121401501F043F80021CC
:10077000601501F03FF817E00D48844208D10121CF
:10078000001501F037F80021201501F033F80BE0D7
:100790000848844208D10121C80301F02BF8002148
:1007A0004FF4004001F026F810BD00000024014085
:1007B00000280140003C0140014600208A6802F008
:1007C00004020AB1012000E0002070470146002029
:1007D0008A6802F008020AB1012000E00020704798
:1007E00030B502460020002350680F4C20400D79A0
:1007F0000C6844EA05242043506090680B4C20406C
:10080000D1E902542C434D7944EA450420439060D9
:10081000D06A20F470000C7C641EE4B2234340EAEA
:100820000350D06230BD0000FFFEF0FFFDF7F1FF86
:10083000816841F0080181607047816841F00401DE
:100840008160704700B587B001214FF4017000F05E
:10085000C1FF4FF4004000F091FF0220ADF804000A
:1008600000208DF8070001A9174800F01BFA17486F
:10087000FFF774FF002002908DF80C008DF80D003A
:100880004FF4602004900020059001208DF818009E
:1008900002A90E48FFF7A4FF01210C48FFF753FF00
:1008A0000A48FFF7C5FF00BF0848FFF78FFF002881
:1008B000FAD10648FFF7C1FF00BF0448FFF77CFFED
:1008C0000028FAD107B000BD000801400024014013
:1008D00010B5A2B0802200212E48FFF735FC2EA2D1
:1008E00030A12C4802F0E0F92A48FFF75BFC3749B9
:1008F0000860802200213648FFF726FC35A326A297
:1009000037A1334802F0D0F93148FFF74BFC3649A4
:1009100008608022002102A8FFF716FC2DA01EA36C
:100920001DA232A1009002A802F0BEF902A8FFF7B2
:1009300039FC0446202036A33E4A2146009002A8F6
:1009400003F088F93B48FFF72DFC3B490860802203
:1009500000213A48FFF7F8FB1EA239A1374802F000
:10096000A3F940F25B7040490860084633490268C9
:100970003EA003F0EBF8074941A003F0E7F8144963
:1009800043A003F0E3F82B4945A003F0DFF822B0C1
:1009900010BD00005C3D00206578616D706C655F86
:1009A0003100000025737C7365637572656D6F643B
:1009B000653D332C7369676E6D6574686F643D685F
:1009C0006D6163736861317C00000000300D0020B0
:1009D000DC3D00206131663737795A46396F410076
:1009E0002573262573000000340D0020636C6965B3
:1009F0006E74496425736465766963654E616D65DF
:100A0000257370726F647563744B6579257300008C
:100A10003139666565376638373033646661393336
:100A2000616366323137353830666234343264356A
:100A3000000000005C3E0020380D0020DC3E00205D
:100A400025732E696F742D61732D6D7174742E630F
:100A50006E2D7368616E676861692E616C69797566
:100A60006E63732E636F6D003C0D0020B7FE20CEC9
:100A7000F120C6F7A3BA25733A25640D0A000000D9
:100A8000BFCDBBA7B6CB4944A3BA25730D0A00005E
:100A9000D3C320BBA720C3FBA3BA25730D0A000054
:100AA000C3DC20202020C2EBA3BA25730D0A00006E
:100AB00008B50121042000F08DFE8020ADF8000073
:100AC00010208DF8030003208DF8020069460448C9
:100AD00000F0E8F88021024800F078F908BD000035
:100AE000000801407047000070B505460C462246DC
:100AF00029460E480068401CFFF714FB0B490968A3
:100B00000C70002109480268601C115407480068F5
:100B100000F5007005490860084600680449096846
:100B2000884202D103480149086070BD240D0020AD
:100B30002C0D00205C2D00207047000010B50A200D
:100B400002F08EFD402000F023F8A8B100210B48F0
:100B500001F09EFA0121094801F07FF900BF402110
:100B6000074800F02AF90028F9D10021034801F0D4
:100B700074F9402000F006F810BD000000040040A9
:100B8000000C014001490860704700001404014056
:100B9000014600200022074B1B6803EA0102054BB7
:100BA00014331B680B4013B10AB1012000E0002090
:100BB0007047000000040140002123498279002A87
:100BC0003AD00A46126803689A430B461A600A1D17
:100BD000126803689A430B1D1A60027911440A686F
:100BE00003681A430A60184A0832126803689A4375
:100BF000154B08331A601A1D126803689A43124B8A
:100C00000C331A604279102A0ED11A1F1268036839
:100C10001A430D4B08331A601A1D126803681A43F1
:100C2000094B0C331A600DE00749427911440A68F8
:100C300003681A430A6005E0027911440A680368F0
:100C40009A430A607047000000040140044900E034
:100C5000521C11F8013B002BFAD1500870470000DC
:100C60008008002030B500228B071C0F0F2303FAE9
:100C700004F20B4B8C1053F824309343084C8D1026
:100C800044F8253023468C1053F824308C07240F69
:100C900000FA04F42343024C8D1044F8253030BD93
:100CA000080001402DE9F041024600250026002001
:100CB00000230024002791F803C00CF00F0591F8E1
:100CC00003C00CF0100CBCF1000F03D091F802C06F
:100CD0004CEA050591F800C0BCF1000F31D0146852
:100CE00000202BE04FF0010C0CFA00F3B1F800C02B
:100CF0000CEA03069E4220D183004FF00F0C0CFA41
:100D000003F7BC4305FA03FC4CEA040491F803C062
:100D1000BCF1280F06D14FF0010C0CFA00FCC2F810
:100D200014C00AE091F803C0BCF1480F05D14FF0A0
:100D3000010C0CFA00FCC2F810C0401C0828D1D3EA
:100D40001460B1F800C0BCF1FF0F34DD546800201E
:100D50002EE000F1080C4FF0010808FA0CF3B1F88E
:100D600000C00CEA03069E4221D183004FF00F0C15
:100D70000CFA03F7BC4305FA03FC4CEA040491F8AF
:100D800003C0BCF1280F05D100F1080C08FA0CF8DB
:100D9000C2F8148091F803C0BCF1480F07D100F1EC
:100DA000080C4FF0010808FA0CF8C2F81080401C3B
:100DB0000828CED35460BDE8F08102460020936835
:100DC0000B400BB1012000E000207047016170472B
:100DD0000AB1016100E0416170477047002001E005
:100DE000411CC8B20A28FBDB7047000008B501218E
:100DF000082000F0EFFC4FF48070ADF800000320F5
:100E00008DF8020014208DF8030069460648FFF7AC
:100E100049FF4FF40070ADF8000069460248FFF743
:100E200041FF00F01DF808BD000C014010B5012085
:100E3000094908600949C1F8A001FFF7CFFF002068
:100E400005490860FFF7CAFF00200449C1F8A00166
:100E5000FFF7C4FF10BD0000A481214200802142A1
:100E600010B500200549086001200549C1F8A0011E
:100E7000FFF7B4FF01200149086010BDA4812142A1
:100E80000080214210B501200D490860FFF7A6FF40
:100E900001200C49C1F8A001FFF7A0FF4FF4007139
:100EA0000948FFF78AFF08B1012400E00024002070
:100EB0000349091F0860FFF791FF204610BD00009D
:100EC000A481214200802142000C014008B501218B
:100ED0000C2000F07FFC2020ADF8000010208DF8E1
:100EE000030003208DF8020069460E48FFF7DAFE82
:100EF00020210D48FFF76AFF2020ADF80000694669
:100F00000848FFF7CFFE20210648FFF75FFF40208B
:100F1000ADF8000028208DF8030069460248FFF76D
:100F2000C1FE08BD000C01400008014013481449EF
:100F300008600846006813490860134813490860B0
:100F400013481449086008460068134908601348AC
:100F5000134908601348144908600846006813499B
:100F600008601348134908600020134908701349AA
:100F70000870134908701349087070475C0D002011
:100F80000C0D0020100D00205C1B0020140D002013
:100F90005C1D0020180D00201C0D00205C2B002083
:100FA000200D00205C2D0020240D0020280D0020A5
:100FB0005C3B00202C0D00204D0D00204F0D00202B
:100FC0004E0D00204C0D002010B52A4800682A491B
:100FD0000968884240D028480068264908600846C9
:100FE00000682649884204D101F500602149086063
:100FF00023E0204801682248814204D100F50060C6
:101000001C49086019E01B4801681E48814204D150
:1010100000F50060174908600FE016480068A0F569
:1010200000701449086008460068A0F50070086068
:1010300008460068A0F5007008600F4804680D4875
:1010400000680D49086000F041F800210EA000F092
:10105000D5F90948046005E000F038F800210AA03D
:1010600000F0CCF90020164908701649087016499E
:10107000087010BD1C0D0020180D00205C1D002004
:101080005C1F00205C2100202F7379732F61316673
:101090003737795A46396F412F6578616D706C65C5
:1010A0005F312F7468696E672F7365727669636547
:1010B0002F70726F70657274792F73657400000001
:1010C0004F0D00204E0D00204C0D002010B50220C9
:1010D000504908600A205049086050480068001DC7
:1010E0004F4909680844801C4E49096808444E4924
:1010F000086010204D490870474800784A4909782F
:1011000008444A494870002088700420C8704D2067
:1011100008715120487154208871C87104200872E8
:10112000C2204872002088726420C8723B49086857
:10113000C11700EB1161090A3C4A1173374908686D
:10114000C11700EB11610912A0EB01215173334863
:101150003749026835480E30FEF7E4FF3049086829
:10116000C11700EB1161C1F307222C4909680E3148
:101170002E4B5A542A490868C11700EB1161091215
:10118000A0EB0121CAB2254909680F315A542349FD
:10119000096810311A46881821490A682549FEF75E
:1011A000C1FF20490868C11700EB1161C1F3072294
:1011B0001A49096810311A4B1B6819441B4B5A54C1
:1011C00018490868C11700EB11610912A0EB012151
:1011D000CAB2124909681131114B1B681944134BEB
:1011E0005A540E49096812310D4A126811441A46C0
:1011F00088180C490A681049FEF794FF05480068F2
:10120000054A12681044084A12688118074800F01D
:1012100093FF10BD400D0020440D0020300D002034
:10122000340D0020380D0020480D00205C3F0020C8
:101230005C3D0020DC3D00205C3E00202DE9F04FAD
:10124000ADF5037D804698F80090494626A002F04F
:101250007DFC08F10105002004460746064600BF54
:10126000761C601C285CC71C394626A002F06EFC68
:101270003C44A9EB0709494626A002F067FCB9F1F6
:10128000000FEDD1012E03D0314626A002F05EFC06
:1012900000200446074683461FE0201D295CE01C11
:1012A000285C01EB002000F1020A601C285CA0EB26
:1012B0000A008290E01C504481908198291801A86E
:1012C000829AFEF72FFF01A88299FFF70DFC601CA0
:1012D000285CC71C3C440BF1010BB345DDDB0DF56D
:1012E000037DBDE8F08F0000BBF1C8A1BDD3CAD516
:1012F000B5C4CAFDBEDDD7DCB3A4B6C83A25640DBB
:101300000A00000074656D705F6C656E3A25640DAF
:101310000A000000CAA3D3E0B3A4B6C83A25640DFE
:101320000A000000B1BEB4CEBDD3CAD5C1CB25647E
:10133000B8F6CDC6CBCDCAFDBEDD0D0A000000005B
:1013400010B5C020044908700020487002210248EE
:1013500000F0F2FE10BD00005C3F00202DE9F041DE
:1013600004460E4615460220204908602046FEF736
:1013700019FF801C1E4908601E48056030201E4968
:1013800008701B4800781B49097808441A494870BE
:101390002046FEF707FF000A174988702046FEF72F
:1013A00001FF1549C8702046FEF7FCFE07463A4685
:1013B00021461148001DFEF7B5FE2046FEF7F2FE5D
:1013C000001D0D4947182A4631463846FEF7AAFE49
:1013D00006480068064A12681044064A12688118D6
:1013E000054800F0A9FEBDE8F0810000400D002096
:1013F000440D0020480D00205C3F002070B50446DD
:101400000D4602201F4908601F4908602046FEF76C
:10141000C9FEC01C1D49086082201D4908701A4879
:1014200000781A49097808441949487000208870E2
:101430000120C8702046FEF7B5FE000A1449087165
:101440002046FEF7AFFE124948712046FEF7AAFE7D
:101450000646324621460E48801DFEF763FE2046B2
:10146000FEF7A0FE801D0A490D5406480068064A92
:1014700012681044054A12688118054800F05CFEA5
:1014800070BD0000400D0020440D0020480D0020DC
:101490005C3F00207047704770B5002100230F2289
:1014A000C47804B3154C246804F4E064C4F5E06423
:1014B000210AC1F10403CA40447804FA03F1847894
:1014C0001440214309010E4C0678A155047804F01C
:1014D0001F050124AC4005786D11AD0005F1E02534
:1014E000C5F8004109E0047804F01F050124AC4070
:1014F000044D0678761145F8264070BD0CED00E0ED
:1015000000E400E080E100E002490143024A11608A
:10151000704700000000FA050CED00E010B5002057
:1015200000F001F810BD70B50646002415E004F186
:10153000B001C8B201F08CFB002001F089FB102043
:1015400001F086FB002504E0304601F097FB681CA3
:10155000C5B2822DF8DB601CC4B2082CE7DB70BD7D
:1015600010B5FFF773FB2B490860FFF73FFCAE2077
:1015700001F06EFB002001F06BFB102001F068FB16
:10158000402001F065FBB02001F062FB812001F0FA
:101590005FFBFF2001F05CFBA12001F059FBA620BE
:1015A00001F056FBA82001F053FB3F2001F050FB57
:1015B000C82001F04DFBD32001F04AFB002001F0D0
:1015C00047FBD52001F044FB802001F041FBD820EF
:1015D00001F03EFB052001F03BFBD92001F038FB78
:1015E000F12001F035FBDA2001F032FB122001F08E
:1015F0002FFBDB2001F02CFB302001F029FB8D209C
:1016000001F026FB142001F023FBAF2001F020FBAA
:1016100010BD0000080D002070B504460D4605F110
:10162000B001C8B201F014FBA11CC1F3031141F0D9
:10163000100001F00DFBA11C01F00F0141F00100B1
:1016400001F006FB70BD00002DE9F0470746884613
:101650001646002580E03078A02843DD00253AE0DA
:10166000702F04DD002708F1020000F0FF08307839
:101670003C4911F8151088422CD17078012101EBFA
:101680004501384A515C884224D141463846FFF72B
:10169000C3FF002406E004EB4511334A505C01F01F
:1016A000EDFA641C102CF6D308F10100C1B23846E3
:1016B000FFF7B2FF002407E004EB451110312A4A7E
:1016C000505C01F0DBFA641C102CF5D307F110001C
:1016D000C7B204E06D1C254800688542C0D300BF36
:1016E000B61C39E07A2F04DD002708F1020000F073
:1016F000FF0831781E48FEF74BFD8146B9F1000F17
:1017000029D041463846FFF787FF002409E099F8C1
:101710000010203904EB0111164A505C01F0AEFABA
:10172000641C082CF3D308F10100C1B23846FFF75E
:1017300073FF00240AE099F80010203904EB01112E
:1017400008310C4A505C01F099FA641C082CF2D361
:1017500007F10800C7B2761C307800287FF47BAF11
:10176000BDE8F0878008002020060020080D00203A
:10177000A70800203000002070470000014600202C
:10178000034A506820F4404008435060704700000E
:101790000010024029B1064AD2690243044BDA61C3
:1017A00004E0034AD2698243014BDA6170470000CA
:1017B0000010024029B1064A12690243044B1A6123
:1017C00004E0034A12698243014B1A61704700002A
:1017D0000010024029B1064A92690243044B9A6103
:1017E00004E0034A92698243014B9A61704700000A
:1017F0000010024029B1064AD2680243044BDA6065
:1018000004E0034AD2688243014BDA60704700006B
:101810000010024030B500210022002400232D4D8D
:101820006D6805F00C0121B1042905D0082923D1E8
:1018300005E0294D056022E0274D05601FE0254D9C
:101840006D6805F47012234D6D6805F4803402252F
:1018500005EB92421CB9214D554305600BE01D4D2F
:101860006D6805F400351DB11C4D5543056002E05F
:10187000194D5543056002E0174D056000BF00BFDC
:10188000144D6D6805F0F0010909154D6B5C056894
:10189000DD4045600F4D6D6805F4E061090A104DAB
:1018A0006B5C4568DD4085600A4D6D6805F46051EC
:1018B000C90A0B4D6B5C4568DD40C560054D6D6820
:1018C00005F44041890B074D6B5CC568B5FBF3F52A
:1018D000056130BD0010024000127A0000093D0091
:1018E0001C0000202C000020704710B500F002F80A
:1018F00010BD00000CB50020019000903348006836
:1019000040F480303149086000BF3048006800F47E
:10191000003000900198401C0190009818B901987F
:10192000B0F5A06FF1D12948006800F4003010B183
:101930000120009001E0002000900098012843D190
:101940002348006840F010002149086008460068FC
:1019500020F0030008600846006840F002000860BC
:101960001A48406819494860084640684860084677
:10197000406840F4806048600846406820F47C106D
:1019800048600846406840F4E8104860084600682F
:1019900040F08070086000BF0C48006800F00070E4
:1019A0000028F9D00948406820F003000749486042
:1019B0000846406840F00200486000BF03484068A5
:1019C00000F00C000828F9D10CBD00000010024006
:1019D00000200240042808D14FF0E021096941F0BD
:1019E00004014FF0E022116107E04FF0E0210969A6
:1019F00021F004014FF0E0221161704770470000B0
:101A000010B51348006840F001001149086008460D
:101A10004068104908400E494860084600680E4971
:101A200008400B4908600846006820F480200860E0
:101A30000846406820F4FE0048604FF41F008860AC
:101A4000FFF753FF4FF000600449086010BD00002D
:101A5000001002400000FFF8FFFFF6FE08ED00E076
:101A60001FB54FF4A060FFF74FFD01210846FFF7B7
:101A700091FE4FF0804000F0FDF940F2CF70ADF8DC
:101A8000080048F69F40ADF804000020ADF80600BD
:101A9000ADF80A0001A94FF0804000F0FBFA0121E7
:101AA000880700F0D7F901221146900700F0E7FA05
:101AB0000121880700F0D1F91C208DF800000220D8
:101AC0008DF8010000208DF8020001208DF8030040
:101AD0006846FFF7E1FC1FBD10B5C0B001218807C3
:101AE00000F0BCFA00282DD0194802781948017876
:101AF00019A002F02BF84FF480716846FEF72BFB1B
:101B00001B4803781B4802781BA1684601F0CCF8FB
:101B10006846FEF747FB0446224669461FA0FFF7CA
:101B20001DFC13480378134802782AA1684601F087
:101B3000BBF86846FEF736FB04462246694617A006
:101B4000FFF70CFC0121880700F084F940B010BDBC
:101B50000300002002000020CEC2B6C8A3BA25644C
:101B60002020CAAAB6C8A3BA25640D0A0000000046
:101B700000000020010000207B22706172616D7303
:101B8000223A7B2274656D70223A25642C22687596
:101B90006D69223A25647D7D000000002F73797302
:101BA0002F6131663737795A46396F412F65786131
:101BB0006D706C655F312F7468696E672F6576652F
:101BC0006E742F70726F70657274792F706F73748A
:101BD000000000007B22706172616D73223A7B22EB
:101BE0004C6F6E676974756465223A25642C224CCB
:101BF00061746974756465223A25647D7D00000016
:101C00001FB54FF4A060FFF77FFC01210220FFF712
:101C1000C1FD184800F02EF944F61F60ADF8080029
:101C200041F61F40ADF804000020ADF80600ADF805
:101C30000A0001A90F4800F02DFA01210D4800F01B
:101C400009F9012211460B4800F019FA012109484F
:101C500000F003F91D208DF8000001208DF801002F
:101C600000208DF8020001208DF803006846FFF780
:101C700013FC1FBD000400401FB54FF4A060FFF728
:101C800043FC01210220FFF785FD184800F0F2F81F
:101C90004EF65F20ADF8080048F69F40ADF804000E
:101CA0000020ADF80600ADF80A0001A90F4800F0C9
:101CB000F1F901210D4800F0CDF8012211460B4841
:101CC00000F0DDF90121094800F0C7F81D208DF86A
:101CD000000002208DF8010001208DF802008DF82F
:101CE00003006846FFF7D8FB1FBD0000000400405A
:101CF00010B50121164800F0B1F938B31548007845
:101D0000062819D2DFE800F003060B0C0D10FFF7D0
:101D100017FB11E0FFF774FFFFF712FB0CE000BFA9
:101D200000BFFFF70DFB07E000200B490870002102
:101D3000074800F092F800BF00BF06480078401C3A
:101D4000044908700121024800F084F810BD000029
:101D5000000400404C0D00204D0D002010B5012165
:101D6000194800F07BF970B31848194902681948FE
:101D70000068401CFEF7D6F9144800781549096838
:101D800008701448006800F50070124908600846A1
:101D9000006811490968884202D110480D4908605D
:101DA00000200A49086000210D4800F071F9002167
:101DB000054800F052F80021034800F069F90121BC
:101DC000014800F047F810BD00080040540D002005
:101DD000604200200C0D0020140D00205C0D00203E
:101DE000000400407FB505460C464FF4A060FFF7A5
:101DF0008BFB01210420FFF7CDFCADF80850ADF8B6
:101E000004400020ADF80600ADF80A0001A9104812
:101E100000F040F901210E4800F01CF801221146A3
:101E20000B4800F02CF90021094800F016F81E209C
:101E30008DF8000001208DF8010000208DF80200CF
:101E400001208DF803006846FFF726FB7FBD0000E8
:101E500000080040CA430282704721B1028842F064
:101E60000102028004E002884FF6FE731A400280ED
:101E70007047000010B504466848844208D101212B
:101E8000C014FFF7B7FC0021E014FFF7B3FCC4E077
:101E9000B4F1804F08D101210846FFF78BFC0021E7
:101EA0000120FFF787FCB8E05D48844208D101219A
:101EB0000220FFF77FFC00210220FFF77BFCACE053
:101EC0005848844208D101210420FFF773FC002107
:101ED0000420FFF76FFCA0E05348844208D10121A1
:101EE0000820FFF767FC00210820FFF763FC94E05F
:101EF0004E48844208D101211020FFF75BFC0021ED
:101F00001020FFF757FC88E04948844208D101219E
:101F10002020FFF74FFC00212020FFF74BFC7CE046
:101F20004448844208D101214014FFF763FC00219A
:101F30006014FFF75FFC70E03F48844209D1012143
:101F4000C804FFF757FC00214FF40020FFF752FCB4
:101F500063E03A48844209D101210805FFF74AFCB1
:101F600000214FF48010FFF745FC56E034488442CE
:101F700009D101214805FFF73DFC00214FF4001075
:101F8000FFF738FC49E02F48844208D10121402066
:101F9000FFF710FC00214020FFF70CFC3DE02A4831
:101FA000844208D101218020FFF704FC0021802019
:101FB000FFF700FC31E02548844208D1012180155B
:101FC000FFF7F8FB0021A015FFF7F4FB25E0204800
:101FD000844209D101210804FFF70CFC00214FF4D1
:101FE0008030FFF707FC18E01A48844209D101212C
:101FF0004804FFF7FFFB00214FF40030FFF7FAFB26
:102000000BE01548844208D101218804FFF7F2FB58
:1020100000214FF48020FFF7EDFB10BD002C0140A4
:102020000004004000080040000C00400010004088
:102030000014004000340140004C014000500140B9
:102040000054014000180040001C004000200040E7
:1020500000400140004401400048014030B50246C4
:10206000002000230024158A05EA0103958905EA6A
:10207000010413B10CB1012000E0002030BD1AB101
:1020800083890B43838102E083898B43838170477B
:1020900081847047002202881D4B98420ED01D4B50
:1020A00098420BD0B0F1804F08D01B4B984205D01E
:1020B0001A4B984202D01A4B984204D14FF68F73B4
:1020C0001A404B881A43174B984207D0164B984238
:1020D00004D04FF6FF431A40CB881A4302808B8806
:1020E00083850B8803850A4B98420BD0094B984295
:1020F00008D00E4B984205D00D4B984202D00D4BA4
:10210000984201D10B7A0386012383827047000035
:10211000002C014000340140000400400008004051
:10212000000C00400010004000140040004001403E
:10213000004401400048014070B505460C46224667
:1021400029460C480068401CFDF7ECFF0949096866
:102150000C700848006800F50070064908600846E1
:10216000006805490968884202D1044801490860AD
:1021700070BD0000180D0020200D00205C1D002007
:1021800010B540F22551184800F09CF858B3174894
:10219000007880B91448001D008820B31248001D43
:1021A00000881349134A1268885412480068401C7A
:1021B0001049086017E00C48001D00880C490D4AC2
:1021C000126888540B48006820B901210A48FFF7BB
:1021D00044FE03E000210848FFF75AFF0548006865
:1021E000401C0449086010BD004400404D0D002013
:1021F00060420020540D00200008004001F40072ED
:10220000B2F5007F00D100BFCA430280704721B100
:10221000828942F40052828104E082894DF6FF7384
:102220001A4082817047000010B50446204884425D
:1022300009D101218803FFF7DDFA00214FF4804026
:10224000FFF7D8FA32E01B48844209D10121480443
:10225000FFF7B0FA00214FF40030FFF7ABFA25E0AA
:102260001548844209D101218804FFF7A3FA00210F
:102270004FF48020FFF79EFA18E01048844209D1FD
:102280000121C804FFF796FA00214FF40020FFF760
:1022900091FA0BE00A48844208D101210805FFF7B2
:1022A00089FA00214FF48010FFF784FA10BD000076
:1022B000003801400044004000480040004C00400D
:1022C0000050004070B50246002400230025002085
:1022D00040F66A16B14200D100BFC1F3421501F0C9
:1022E0001F03012606FA03F3012D02D1968933401C
:1022F00006E0022D02D1168A334001E0968A33406F
:102300000C12012606FA04F41688344013B10CB1FD
:10231000012000E0002070BDF0B503460024002637
:102320000025002040F66A17B94200D100BF1846C8
:10233000C1F3421401F01F06012707FA06F5012C2C
:1023400001D10C3004E0022C01D1103000E0143037
:102350001AB107682F43076002E00768AF430760C0
:10236000F0BD00002DE9F04786B005460E4600247A
:10237000A24600BFA1460027B08900B100BF2F468A
:102380002C8A4CF6FF700440F08804432C82AC8900
:102390004EF6F3100440B088318908437189084330
:1023A0000443AC81AC8A4FF6FF400440B08904433B
:1023B000AC8201A8FFF72EFA1F48874202D1DDF850
:1023C00010A001E0DDF80CA0A88900F4004040B1A5
:1023D0000AEBCA0000EB0A1031684900B0FBF1F8C3
:1023E00007E00AEBCA0000EB0A1031688900B0FB75
:1023F000F1F86420B8FBF0F004012009642101FB2E
:102400001089A88900F4004040B1322000EBC900D7
:10241000B0FBF1F000F00700044308E0322000EBCD
:1024200009106421B0FBF1F000F00F0004432C818F
:1024300006B0BDE8F087000000380140704700009A
:1024400010B586B0044601218803FFF7C3F90121C6
:102450000420FFF7BFF94FF40070ADF8140003201B
:102460008DF8160018208DF8170005A91248FEF700
:1024700019FC4FF48060ADF8140004208DF81700AB
:1024800005A90D48FEF70EFC01940020ADF80800E8
:10249000ADF80A00ADF80C00ADF810000820ADF85A
:1024A0000E0001A90548FFF75DFF01210348FFF772
:1024B000AEFE06B010BD000000080140003801402B
:1024C00010B586B004464FF4A060FFF71DF8012157
:1024D0004804FFF75FF901210420FFF77BF9244846
:1024E000FFF7A2FE0420ADF8140003208DF81600BB
:1024F00018208DF8170005A91E48FEF7D3FB082009
:10250000ADF8140004208DF8170005A91948FEF74E
:10251000C9FB01940020ADF80800ADF80A00ADF841
:102520000C00ADF810000C20ADF80E0001A9104809
:10253000FFF718FF20210E48FFF760FE012240F24E
:1025400025510B48FFF7E8FE26208DF800000020FB
:102550008DF801008DF8020001208DF80300684617
:10256000FEF79AFF01210248FFF751FE06B010BDA9
:1025700000440040000801401FB501210920FFF779
:1025800029F98020ADF80C0010208DF80F000320F1
:102590008DF80E0003A91748FEF784FB4020ADF824
:1025A0000C0028208DF80F0003A91248FEF77AFBD3
:1025B00006210120FEF756FB4020019001208DF8F6
:1025C0000A0000208DF8080008208DF8090001A8F5
:1025D000FEF7F2FA17208DF8000001208DF80300B5
:1025E00000208DF801008DF802006846FEF754FFC8
:1025F0001FBD0000000C014010B539A001F0A6FA83
:10260000322000F06DFA20B139A001F09FFA0120CC
:1026100010BD3DA001F09AFA3EA001F097FA3221D8
:1026200041A000F0AFFA20B142A001F08FFA0220E1
:10263000EEE747A001F08AFA4A48007800281ED148
:1026400049A001F083FA32214CA000F09BFA20B19E
:102650004EA001F07BFA0320DAE754A001F076FAED
:1026600057A001F073FA1E2000F0E8F920B159A03C
:1026700001F06CFA0420CBE75DA001F067FA61A0DD
:1026800001F064FA322163A000F07CFA20B165A069
:1026900001F05CFA0820BBE769A001F057FA6CA0D2
:1026A00001F054FA32216FA000F06CFA20B170A052
:1026B00001F04CFA0920ABE775A001F047FA79A0C8
:1026C00001F044FA642000F00FF920B17AA001F083
:1026D0003DFA0A209CE77FA001F038FA002097E736
:1026E000D7BCB1B8B8B4CEBBC4A3BFE90D0A0000D3
:1026F000B8B4CEBBCAA7B0DCA3ACD7BCB1B8D6D8EF
:10270000C6F40D0A00000000B8B4CEBBB3C9B9A628
:102710000D0A0000D7BCB1B8C9E8D6C3535441C4B0
:10272000A3CABD0D0A00000041542B43574D4F442E
:10273000453D3100C9E8D6C3535441C4A3CABDCAFC
:10274000A7B0DCA3ACD7BCB1B8D6D8C6F40D0A008C
:10275000C9E8D6C3535441C4A3CABDB3C9B9A60D71
:102760000A000000580D0020D7BCB1B8C8A1CFFBAB
:10277000D7D4B6AFC1ACBDD30D0A000041542B4332
:10278000574155544F434F4E4E3D3000C8A1CFFBEB
:10279000D7D4B6AFC1ACBDD3CAA7B0DCA3ACD7BC4D
:1027A000B1B8D6D8C6F40D0A00000000C8A1CFFB0E
:1027B000D7D4B6AFC1ACBDD3B3C9B9A60D0A00001A
:1027C000D7BCB1B8C1ACBDD3C2B7D3C9C6F70D0A27
:1027D00000000000C1ACBDD3C2B7D3C9C6F7CAA7B9
:1027E000B0DCA3ACD7BCB1B8D6D8C6F40D0A000093
:1027F000C1ACBDD3C2B7D3C9C6F7B3C9B9A60D0A18
:1028000000000000D7BCB1B8C9E8D6C3CDB8B4AB9E
:102810000D0A000041542B4349504D4F44453D3172
:1028200000000000C9E8D6C3CDB8B4ABCAA7B0DC7D
:10283000A3ACD7BCB1B8D6D8C6F40D0A00000000CE
:10284000C9E8D6C3CDB8B4ABB3C9B9A60D0A000068
:10285000D7BCB1B8B9D8B1D5B6E0C2B7C1ACBDD359
:102860000D0A000041542B4349504D55583D30004E
:10287000B9D8B1D5B6E0C2B7C1ACBDD3CAA7B0DC38
:10288000A3ACD7BCB1B8D6D8C6F40D0A000000007E
:10289000B9D8B1D5B6E0C2B7C1ACBDD3B3C9B9A63A
:1028A0000D0A0000D7BCB1B8C1ACBDD3B7FECEF1A4
:1028B000C6F70D0A00000000C1ACBDD3B7FECEF1D3
:1028C000C6F7CAA7B0DCA3ACD7BCB1B8D6D8C6F49B
:1028D0000D0A0000C1ACBDD3B7FECEF1C6F7B3C937
:1028E000B9A60D0A0000000010B5044600202E49CC
:1028F00008604FF480612D48FDF72DFC2C482D49D0
:1029000002682DA001F06CF91AE0642000F082FE4C
:1029100030A12648FDF72AFC00B115E02FA123487D
:10292000FDF724FC08B1012010BD2EA11F48FDF7C2
:102930001DFC08B10220F7E721462FA001F006F99F
:10294000201EA4F10104E0D100BF2CA001F0FEF88C
:10295000002C01DC0320E7E729A001F0F7F80020B4
:10296000114908604FF480611048FDF7F4FB2CA07A
:1029700001F036F90CE0642000F04CFE2CA10B486D
:10298000FDF7F4FB00B107E021461BA001F0DEF8E3
:10299000201EA4F10104EED100BF002C01DC0420B4
:1029A000C2E70020C0E70000540D00206042002074
:1029B0003C0D0020DC3E002041542B434950535431
:1029C0004152543D22544350222C222573222C255F
:1029D000640D0A00434F4E4E45435400434C4F5341
:1029E00045440000414C524541445920434F4E4E0E
:1029F0004543544544000000256420000D0A0000B2
:102A0000C1ACBDD3B7FECEF1C6F7B3C9B9A6A3AC6E
:102A1000D7BCB1B8BDF8C8EBCDB8B4AB0D0A000057
:102A200041542B43495053454E440D0A00000000C9
:102A30000D0A4F4B0D0A0D0A3E00000010B504466A
:102A40000020144908604FF480611348FDF783FBB0
:102A500012A215A116A001F0C3F80DE04FF47A7090
:102A600000F0D8FD18A10C48FDF780FB00B107E08D
:102A7000214618A001F06AF8201EA4F10104EDD14E
:102A800000BF16A001F062F8002C01DC012010BD8F
:102A90000020FCE7540D0020604200207A78637625
:102AA000626E6D616C0000005265646D657A0000B5
:102AB00041542B43574A41503D222573222C222555
:102AC00073220D0A000000005749464920474F5421
:102AD0002049500025640D0A200000000D0A000066
:102AE00010B50446002210211348FEF771F94FF487
:102AF000FA7000F08FFD012210210F48FEF768F9EF
:102B00000CE0642000F086FD0CA10E48FDF72EFBC2
:102B100000B107E021460CA001F018F8201EA4F136
:102B20000104EED100BF09A001F010F8002C01DC77
:102B3000012010BD0020FCE70008014072656164BF
:102B40007900000060420020256420000D0A00008A
:102B500008B501210420FEF73DFE1020ADF800006D
:102B600003208DF8020010208DF803006946044808
:102B7000FEF798F8012210210148FEF729F908BD57
:102B80000008014070B505460C4600201349086056
:102B90004FF480611248FDF7DEFA294611A001F0DA
:102BA0001FF80CE0642000F035FD10A10C48FDF783
:102BB000DDFA00B107E021460DA000F0C7FF201E9E
:102BC000A4F10104EED100BF0AA000F0BFFF002C69
:102BD00001DC012070BD0020FCE70000540D002046
:102BE0006042002025730D0A000000004F4B0000DA
:102BF000256420000D0A000070B50446002520E081
:102C000004F0800018B101200F49086002E00020A4
:102C10000D490860FEF7E2F801200B49091F086022
:102C2000FEF7DCF800200949C1F8A001072D02D108
:102C30000120054908606006040EFEF7CFF8681C05
:102C4000C5B2082DDCDB70BDA48121420080214289
:102C500010B50446FEF7EAF87820FFF7CDFFFEF73F
:102C600011F90020FFF7C8FFFEF70CF92046FFF727
:102C7000C3FFFEF707F9FEF7F3F810BD10B50446E1
:102C8000FEF7D4F87820FFF7B7FFFEF7FBF84020F7
:102C9000FFF7B2FFFEF7F6F82046FFF7ADFFFEF7AD
:102CA000F1F8FEF7DDF810BD0FB4084B10B504A91C
:102CB00002AA039800F0F0F8044602A9002000F0F0
:102CC00082FC204610BC5DF814FB0000C7350008EC
:102CD00037B514460846064B6A46214600F0DCF834
:102CE00004466946002000F06EFC20463EBD000010
:102CF000C735000802E008C8121F08C1002AFAD12F
:102D000070477047002001E001C1121F002AFBD16B
:102D1000704700002DE9FF5F82B00021DDE904303B
:102D2000020DDDF840B0034318D044F61050A2F273
:102D3000FF3242431514119801281FD0A5EB0B0058
:102D4000401C5FEA000A4FF000064E4FDFF8389152
:102D5000B046504615D5CAF1000413E0119801247D
:102D60004AA3012801D16FEA0B010298119AC0E928
:102D70000031C0E9024206B0BDE8F09FCBF100008F
:102D8000DFE704460021404A491842EB0450CDE9F0
:102D9000001012E0E00707D032463B464046494665
:102DA000FDF7F5FA8046894632463B4610461946FD
:102DB000FDF7EDFA06460F466410002CEAD1DDE976
:102DC0000401DDE90023BAF1000F06DAFDF7DFFAAE
:102DD00042464B46FDF7DBFA05E0FDF74AFB42466B
:102DE0004B46FDF746FB04460E460022284BFDF7F6
:102DF000C7FB03D84FF0FF30014607E00022254B08
:102E000020463146FDF71CFAFDF7A2FB102409E02D
:102E1000002C0ADB0A220023FDF7E1F9039B303284
:102E20001A55641E50EA0102F2D1641C039AC4F1DF
:102E300011031444119A012A03D0012208430DD131
:102E40000AE0084304D000204FF0110B119072E704
:102E5000A3EB0B056D1E0DE05B4504DD4FF000029A
:102E600005F1010504E003DA4FF00002A5F10105C8
:102E7000002AECD002981199C0E90231C0E900455E
:102E800079E70000000014400000F03F300000002F
:102E90000000F0430000E03F2DE9FF4F95B09B4656
:102EA0008946064600250FE2252877D100242746CB
:102EB000F84A0121059400E0044316F8013F203B45
:102EC00001FA03F01042F7D130782A2811D06FF0C0
:102ED0002F033078A0F13002092A16D8059A44F061
:102EE000020402EB820203EB42021044761C0590BE
:102EF000EFE759F8042B0592002A03DA504244F414
:102F00000054059044F00204761C30782E2816D127
:102F100016F8010F44F004042A280DD06FF02F0298
:102F20003078A0F13003092B09D807EB870302EBB7
:102F30004303C718761CF3E759F8047B761C3078F6
:102F40006C280FD006DC4C2817D068280DD06A28D2
:102F500014D104E0742810D07A280FD10DE044F485
:102F600000140AE044F4801401E044F44014727840
:102F7000824202D104F58014761C761C30786628D3
:102F80000BD013DC582877D009DC002875D04528F1
:102F9000F6D04628F4D047281AD19DE118E06328DE
:102FA00035D0642879D0652812D195E1702873D086
:102FB00008DC6728F1D069286FD06E280DD06F2803
:102FC00006D1B5E073282CD0752875D0782874D038
:102FD0005A46179990476D1C75E1C4F302500228B8
:102FE00009D003280DD0D9F8001004280DD00D60A9
:102FF00009F1040967E1D9F80010EA17C1E90052A4
:10300000F6E7D9F800100D80F2E70D70F0E719F837
:10301000041B8DF8001000208DF80100EA46012005
:1030200003E059F804AB4FF0FF3061074FF00001A7
:1030300002D40DE008F101018846B9420FDA80455B
:10304000F8DB1AF808100029F4D108E008F10101B2
:1030500088468142FADB1AF808100029F6D1059853
:103060005B46A0EB080721463846179A00F094FA11
:10307000284400EB080507E04DE029E10DE01AF8CF
:10308000010B5A4617999047B8F10108F7D25B46F1
:1030900021463846179A13E142E00A220092C4F30F
:1030A00002524FF0000A022A08D059F804CB032A32
:1030B0004FEAEC710AD00DE029E02AE009F107019E
:1030C00021F00702F2E802C1914609E00FFA8CFCF8
:1030D0004FEAEC71042A03D14FFA8CFC4FEAEC71F1
:1030E000002907DA0A460021DCF1000C61EB02013D
:1030F0002D2202E0220504D52B228DF80420012286
:1031000003E0E20701D02022F7E7904659E00A21C8
:1031100002E010220DE010214FF0000A00910BE0B8
:1031200010224FF0000A44F004040827009203E044
:1031300008224FF0000A0092C4F30252022A05D07E
:1031400059F804CB0021032A08D009E009F107014E
:1031500021F00702F2E802C1914605E01FFA8CFC5B
:10316000042A01D10CF0FF0C4FF00008220728D5EB
:10317000702806D0009B83F0100353EA0A0305D0A1
:103180000EE040228DF80420012208E05CEA0102F2
:1031900006D030228DF804208DF8050002229046DA
:1031A000009B83F0080353EA0A030AD15CEA010298
:1031B00001D1620705D530228DF804204FF00108B7
:1031C0007F1E582804D034A003900EA802900DE072
:1031D00036A0F9E753466046009AFDF700F88446AA
:1031E0000398825C0298401E029002705CEA010023
:1031F000F0D1029806A9081A00F1200A600702D54A
:1032000024F4803400E00127574502DDA7EB0A00D3
:1032100000E0002000EB0A01009005984144401AAC
:103220000590E00306D45B462146179A059800F006
:10323000B3F90544002706E001A85A46C05D179976
:1032400090476D1C7F1C4745F6DBE0030CD55B46C1
:103250002146179A059800F09FF9054404E03020B4
:103260005A46179990476D1C0099481E00900029F6
:10327000F5DC08E0029802995A460078491C029150
:10328000179990476D1CBAF10001AAF1010AF1DC0F
:1032900065E100000928010030313233343536371A
:1032A0003839616263646566000000003031323392
:1032B0003435363738394142434445460000000032
:1032C00000F058F90544761C307800287FF4ECAD06
:1032D00019B02846BDE8F08F620700D4062709F12F
:1032E000070222F0070CFCE80223E14603F0004845
:1032F0005FEA080C02D00FF2702C0DE05FEA045C6C
:1033000002D50FF2682C07E05FEAC47C02D00FF20E
:10331000602C01E0AFF2700C4FF0FF3823F0004357
:10332000CDF850C065280CD006DC452809D04628C9
:103330001DD047283DD13DE0662818D067287ED1B2
:1033400038E00021112F01DB112000E0781CCDE9CD
:10335000000106A90EA8FFF7DDFCDDE90F010E9ABA
:1033600003910021009207F1010A04914DE04FF012
:1033700000400097CDE9011006A90EA8FFF7CAFC8E
:10338000DDE90F0203920E9B11990022DDF80CA0DB
:103390000093049211B9791C00EB010AB7EB0A0003
:1033A00004D4C0F1FF3007F1010A0490AAEB070032
:1033B000019044E0012F00DA01270021112F01DDE7
:1033C000112000E03846CDE9000106A90EA8FFF75C
:1033D000A1FCDDE90F010E9A0391002104910092F6
:1033E000BA4621070CD40399514500DA8A46BAF14E
:1033F000010F05DD009AAAF10101515C302908D0C6
:10340000B84202DA10F1040F06DA0121CDE9011009
:1034100015E0AAF10101E9E7002805DC049901445F
:103420000491AAEB000102E0411C514500DD8A46EF
:103430000499401A401C01904FF000400290200770
:1034400004D40198504501DBCDF8048000208DF8AC
:103450004F0002980DF14F07B0F1004F25D02B20FF
:103460000E9002984FF0020800280CDA40420290B9
:103470002D200E9007E00A210298FCF79AFE3031C9
:10348000029007F8011DB8F10001A8F10108F2DC73
:1034900002980028EFD1791E0E980870307800F05D
:1034A000200040F0450007F8020D12A8C01B00F1F3
:1034B00007081498007800B1012000EB0A01019878
:1034C00001EBE07105984144401A401E0590E0036D
:1034D00006D45B462146179A059800F05DF805442E
:1034E0001498007818B15A46179990476D1CE0035C
:1034F00024D55B462146179A059800F04DF80544FF
:103500001CE00498002807DBDDE90301884203DDA5
:103510000098405C179901E0179930205A4690476F
:10352000049805F10105401C04900198401E01908B
:1035300004D12E205A46179990476D1CBAF100010C
:10354000AAF1010ADDDC05E017F8010B5A461799CC
:1035500090476D1CB8F10001A8F10108F4DC5B464E
:103560002146179A0598ABE62D0000002B000000BD
:10357000200000002DE9F041044600251E461746B4
:10358000880404D405E039462020B0476D1C641E31
:10359000F9D52846BDE8F0812DE9F0410446002523
:1035A0001E469046C80301D5302700E02027880436
:1035B00004D505E041463846B0476D1C641EF9D578
:1035C0002846BDE8F0810A68531C0B6010707047F4
:1035D00010B56FF00400FEF7FDF90A4800680A49CB
:1035E000B0FBF1F0094908700846007800EB400193
:1035F000C1EBC0104FF6FF7101EAC000044908801A
:1036000010BD00000400002000127A001800002005
:103610001A0000200146114A12884A434FF0E02365
:103620005A6100229A611A46126942F001021A6137
:1036300000BF4FF0E022106900F001021AB100F45F
:103640008032002AF5D04FF0E022126922F0010208
:103650004FF0E0231A6100229A6170471A0000209F
:103660000146114A12784A434FF0E0235A61002282
:103670009A611A46126942F001021A6100BF4FF0C6
:10368000E022106900F001021AB100F48032002A31
:10369000F5D04FF0E022126922F001024FF0E02352
:1036A0001A6100229A6170471800002000BF00BF15
:1036B0004FF4A060FDF728FFFFF78AFF4FF4165084
:1036C000FEF7BEFE4FF4E130FEF7FAFE4FF4E15193
:1036D0004FF49670FEF786FBFEF74EFFFDF7B2F84B
:1036E000FDF7F4FBFDF7E4F9FFF732FAFDF71EFCF6
:1036F000FDF7EEF8FDF734FFFDF710FF94A200216F
:103700000846FDF7A1FF95A200215820FDF79CFF78
:1037100093A203210020FDF797FF94A20621002029
:10372000FDF792FF93A206216420FDF78DFF0DE1C6
:1037300091480078012870D1904800689049096844
:1037400088422AD08D480068407810280CD08B48D9
:1037500000684078822803D18A480078012803D085
:1037600089480078012818D184480068417887A0EA
:1037700000F0ECF98148006800F016FA7F48006814
:1037800000F500707D4908600846006883490968B3
:10379000884202D18248794908608248006882499B
:1037A00009688842C3D081A000F0D0F97D48006844
:1037B0000078042841D17B480068407820283CD11B
:1037C00078480068007906282FD2DFE800F0030A65
:1037D00011181F2778A000F0B9F901206949087075
:1037E0002AE07AA000F0B2F900206349087023E0D3
:1037F00081A000F0ABF900205F4908701CE08AA0AE
:1038000000F0A4F900205C49087015E090A000F0D9
:103810009DF90020584908700EE06FE097A000F075
:1038200095F900205449087006E09CA000F08EF93C
:1038300000205149087000BF50E05A4800680078E5
:10384000052820D157480068407890281BD155485A
:103850000068407910B101280DD100E000BF98A0A8
:1038600000F074F901204849087000209749087059
:10387000FEF702FA06E096A000F068F900203E4943
:10388000087000BF2AE0474800680078022819D174
:10389000444800684078D02814D193A000F056F92D
:1038A0008A480078012803D100208849087015E073
:1038B00086480078012811DD002084490870FEF751
:1038C000DBF90BE0374800684078302806D18AA041
:1038D00000F03CF933480068FDF7B0FC314800685F
:1038E00000F500702F49086008460068874909689C
:1038F00088422BD186482B49086027E085A000F03C
:1039000025F900218848FEF7A8FA00218748FEF72C
:10391000A4FA0020864908604FF480618548FCF7CE
:103920001AFCFEF769FE88B983A000F00FF90120A8
:103930001149087000207E4908604FF480617D487D
:10394000FCF709FCFDF740FBFEF78AF8F0E6000003
:10395000CDC1C8C0CAAAB6C83A0000002500000000
:10396000B6AFCEEFB7BDCEBB3A000000BEE0C0EBB5
:103970003A000000636D00004D0D00201C0D00207A
:10398000180D00204E0D00204F0D0020B7A2CBCD0A
:10399000CAFDBEDD3A307825780D0A00200D0020E2
:1039A0005C1D0020100D00200C0D0020BDD3CAD5D9
:1039B000B5BDCAFDBEDD3A00434F4E4E454354B13E
:1039C000A8CEC4B3C9B9A60D0A000000C1ACBDD3CE
:1039D000D2D1BEDCBEF8A3ACB2BBD6A7B3D6B5C4B9
:1039E000D0ADD2E9B0E6B1BEA3ACD7BCB1B8D6D8A1
:1039F000C6F40D0A00000000C1ACBDD3D2D1BEDCBC
:103A0000BEF8A3ACB2BBBACFB8F1B5C4BFCDBBA7AB
:103A1000B6CBB1EACAB6B7FBA3ACD7BCB1B8D6D85F
:103A2000C6F40D0A00000000C1ACBDD3D2D1BEDC8B
:103A3000BEF8A3ACB7FECEF1B6CBB2BBBFC9D3C301
:103A4000A3ACD7BCB1B8D6D8C6F40D0A00000000AC
:103A5000C1ACBDD3D2D1BEDCBEF8A3ACCEDED0A704
:103A6000B5C4D3C3BBA7C3FBBBF2C3DCC2EBA3ACDF
:103A7000D7BCB1B8D6D8C6F40D0A0000C1ACBDD3CE
:103A8000D2D1BEDCBEF8A3ACCEB4CADAC8A8A3AC0F
:103A9000D7BCB1B8D6D8C6F40D0A0000C1ACBDD3AE
:103AA000D2D1BEDCBEF8A3ACCEB4D6AAD7B4CCACCF
:103AB000A3ACD7BCB1B8D6D8C6F40D0A000000003C
:103AC000B6A9D4C4B3C9B9A60D0A00004C0D002094
:103AD000B6A9D4C4CAA7B0DCA3ACD7BCB1B8D6D8F9
:103AE000C6F40D0A0000000050494E47B1A8CEC4EC
:103AF000BBD8B8B40D0A0000B7FECEF1C6F7B5C802
:103B0000BCB630CDC6CBCD0D0A000000140D002090
:103B10005C0D0020D0E8D2AAC1ACBDD3B7FECEF177
:103B2000C6F70D0A00000000000800400004004035
:103B3000540D002060420020BDA8C1A2544350C1D2
:103B4000ACBDD3B3C9B9A60D0A0000000FB438B597
:103B500005A800901248009A0499FFF7B9F80020D0
:103B600000900F48FCF71EFB054600BF0D4800887B
:103B700000F040000028F9D000240CE00848005D67
:103B80000849091D088000BF0648008800F0400071
:103B90000028F9D0641CAC42F0D338BC5DF814FBAB
:103BA0006041002000380140014600BF0B4A1288E6
:103BB00002F04002002AF9D001200BE00A5C074B1A
:103BC0001B1D1A8000BF054A128802F04002002A1D
:103BD000F9D0401C0A788242F0DA70470044004075
:103BE0000FB438B505A800901248009A0499FFF761
:103BF0006FF8002000900F48FCF7D4FA054600BF8C
:103C00000D48008800F040000028F9D000240CE0A6
:103C10000848005D0849091D088000BF0648008863
:103C200000F040000028F9D0641CAC42F0D338BC4E
:103C30005DF814FB6046002000440040014601F09E
:103C40000F010A2902DA01F1300001E001F1570009
:103C500040B270472DE9F043BDB006468846154690
:103C60001F46DDF810910EB105B117B93DB0BDE8A2
:103C7000F083B9F1400F00DDF8E7402116A8FCF70A
:103C80006AFA402106A8FCF766FA4A46394616A8A1
:103C9000FCF748FA4A46394606A8FCF743FA0024DE
:103CA0000CE016A8005D80F0360016A9085506A89D
:103CB000005D80F05C0006A90855641C402CF0DB18
:103CC00026A800F0AFF826A801F042FD402216A970
:103CD00026A801F053FD4246314626A801F04EFDCC
:103CE00001A926A800F02AF826A800F09BF826A82B
:103CF00001F02EFD402206A926A801F03FFD142266
:103D000001A926A801F03AFD01A926A800F016F89D
:103D100000240FE001A9095D0811FFF78FFF05F8E6
:103D2000140001A9085DFFF789FF012101EB44019F
:103D30006854641C142CEDDB00BF97E72DE9FC47A9
:103D400004460D462068400F616840EAC1062068BD
:103D5000C700300E8DF80000300C8DF80100300ADD
:103D60008DF80200F0B28DF80300380E8DF80400D3
:103D7000380C8DF80500380A8DF80600F8B28DF879
:103D80000700207800F03F08B8F1380F02D2C8F1E0
:103D9000380001E0C8F1780081464A4620492046B3
:103DA00001F0ECFC08226946204601F0E7FCA0681F
:103DB000000E2870A068000C68702089000AA870A6
:103DC000207AE870E068000E2871E068000C6871E5
:103DD000A089000AA871207BE8712069000E287272
:103DE0002069000C6872208A000AA872207CE872A0
:103DF0006069000E28736069000C6873A08A000A6D
:103E0000A873207DE873A069000E2874A069000CD7
:103E10006874208B000AA874207EE874BDE8FC87D3
:103E2000F857000810B504465C212046FCF793F9CA
:103E300010BD00002DE9F04390B007460E4696F8FD
:103E400000C04FEA0C6C96F801804CEA084C96F8DA
:103E500002804CEA082C96F803804CEA080CCDF856
:103E600000C096F804C04FEA0C6C96F805804CEA46
:103E7000084C96F806804CEA082C96F807804CEA25
:103E8000080CCDF804C096F808C04FEA0C6C96F800
:103E900009804CEA084C96F80A804CEA082C96F8FF
:103EA0000B804CEA080CCDF808C096F80CC04FEA1D
:103EB0000C6C96F80D804CEA084C96F80E804CEA93
:103EC000082C96F80F804CEA080CCDF80CC096F838
:103ED00010C04FEA0C6C96F811804CEA084C96F82A
:103EE00012804CEA082C96F813804CEA080CCDF8A6
:103EF00010C096F814C04FEA0C6C96F815804CEA86
:103F0000084C96F816804CEA082C96F817804CEA74
:103F1000080CCDF814C096F818C04FEA0C6C96F84F
:103F200019804CEA084C96F81A804CEA082C96F84E
:103F30001B804CEA080CCDF818C096F81CC04FEA5C
:103F40000C6C96F81D804CEA084C96F81E804CEAE2
:103F5000082C96F81F804CEA080CCDF81CC096F887
:103F600020C04FEA0C6C96F821804CEA084C96F879
:103F700022804CEA082C96F823804CEA080CCDF8F5
:103F800020C096F824C04FEA0C6C96F825804CEAC5
:103F9000084C96F826804CEA082C96F827804CEAC4
:103FA000080CCDF824C096F828C04FEA0C6C96F89F
:103FB00029804CEA084C96F82A804CEA082C96F89E
:103FC0002B804CEA080CCDF828C096F82CC04FEA9C
:103FD0000C6C96F82D804CEA084C96F82E804CEA32
:103FE000082C96F82F804CEA080CCDF82CC096F8D7
:103FF00030C04FEA0C6C96F831804CEA084C96F8C9
:1040000032804CEA082C96F833804CEA080CCDF844
:1040100030C096F834C04FEA0C6C96F835804CEA04
:10402000084C96F836804CEA082C96F837804CEA13
:10403000080CCDF834C096F838C04FEA0C6C96F8EE
:1040400039804CEA084C96F83A804CEA082C96F8ED
:104050003B804CEA080CCDF838C096F83CC04FEADB
:104060000C6C96F83D804CEA084C96F83E804CEA81
:10407000082C96F83F804CEA080CCDF83CC0B86894
:10408000F9683A697B69BC694FEA401C4CEAD06820
:1040900082EA030C0CEA010C8CEA030CC444DFF83E
:1040A000F88FC444DDF80080C44464444FEA817C46
:1040B0004CEA91014FEA441C4CEAD46881EA020CB4
:1040C0000CEA000C8CEA020CC444DFF8CC8FC44428
:1040D000DDF80480C44463444FEA807C4CEA9000DD
:1040E0004FEA431C4CEAD36880EA010C0CEA040C4A
:1040F0008CEA010CC444DFF8A08FC444DDF80880CA
:10410000C44462444FEA847C4CEA94044FEA421C63
:104110004CEAD26884EA000C0CEA030C8CEA000C2E
:10412000C444DFF8748FC444DDF80C80C444614497
:104130004FEA837C4CEA93034FEA411C4CEAD16876
:1041400083EA040C0CEA020C8CEA040CC444DFF889
:10415000488FC444DDF81080C44460444FEA827C38
:104160004CEA92024FEA401C4CEAD06882EA030C07
:104170000CEA010C8CEA030CC444DFF81C8FC44425
:10418000DDF81480C44464444FEA817C4CEA910118
:104190004FEA441C4CEAD46881EA020C0CEA000C99
:1041A0008CEA020CC444DFF8F08EC444DDF81880B9
:1041B000C44463444FEA807C4CEA90004FEA431CBD
:1041C0004CEAD36880EA010C0CEA040C8CEA010C7E
:1041D000C444DFF8C48EC444DDF81C80C444624487
:1041E0004FEA847C4CEA94044FEA421C4CEAD268C1
:1041F00084EA000C0CEA030C8CEA000CC444DFF8DF
:10420000988EC444DDF82080C44461444FEA837C26
:104210004CEA93034FEA411C4CEAD16883EA040C50
:104220000CEA020C8CEA040CC444DFF86C8EC44423
:10423000DDF82480C44460444FEA827C4CEA920258
:104240004FEA401C4CEAD06882EA030C0CEA010CED
:104250008CEA030CC444DFF8408EC444DDF82880A7
:10426000C44464444FEA817C4CEA91014FEA441C07
:104270004CEAD46881EA020C0CEA000C8CEA020CCD
:10428000C444DFF8148EC444DDF82C80C444634475
:104290004FEA807C4CEA90004FEA431C4CEAD3681A
:1042A00080EA010C0CEA040C8CEA010CC444DFF82F
:1042B000E88DC444DDF83080C44462444FEA847C15
:1042C0004CEA94044FEA421C4CEAD26884EA000C9F
:1042D0000CEA030C8CEA000CC444DFF8BC8DC44427
:1042E000DDF83480C44461444FEA837C4CEA930394
:1042F0004FEA411C4CEAD16883EA040C0CEA020C38
:104300008CEA040CC444DFF8908DC444DDF8388096
:10431000C44460444FEA827C4CEA92024FEA401C5B
:104320004CEAD06882EA030C0CEA010C8CEA030C1C
:10433000C444DFF8648DC444DDF83C80C444644464
:104340004FEA817C4CEA9101DDF834C0DDF8208031
:104350008CEA080CDDF808808CEA080CDDF8008097
:104360008CEA08054FEA450C4CEAD5784FEA441C24
:104370004CEAD46981EA020C0CEA000C8CEA020CCB
:10438000CC44DFF8149DCC44C4446344CDF8008091
:104390004FEA807C4CEA9000DDF838C0DDF82480DC
:1043A0008CEA080CDDF80C808CEA080CDDF804803F
:1043B0008CEA08054FEA450C4CEAD5784FEA431CD5
:1043C0004CEAD36980EA010C0CEA040C8CEA010C7B
:1043D000CC44DFF8C49CCC44C4446244CDF804808F
:1043E0004FEA847C4CEA9404DDF83CC0DDF8288078
:1043F0008CEA080CDDF810808CEA080CDDF80880E7
:104400008CEA08054FEA450C4CEAD5784FEA421C85
:104410004CEAD26984EA000C0CEA030C8CEA000C2A
:10442000CC44DFF8749CCC44C4446144CDF808808B
:104430004FEA837C4CEA9303DDF800C0DDF82C8062
:104440008CEA080CDDF814808CEA080CDDF80C808E
:104450008CEA08054FEA450C4CEAD5784FEA411C36
:104460004CEAD16983EA040C0CEA020C8CEA040CD5
:10447000CC44DFF8249CCC44C4446044CDF80C8088
:104480004FEA827C4CEA9202DDF804C0DDF830800D
:104490008CEA080CDDF818808CEA080CDDF8108036
:1044A0008CEA08054FEA450C4CEAD5784FEA401CE7
:1044B0004CEAD06981EA020C8CEA030CCC44DFF8A8
:1044C000DC9BCC44C4446444CDF810804FEA817C2A
:1044D0004CEA9101DDF808C0DDF834808CEA080C64
:1044E000DDF81C808CEA080CDDF814808CEA0805E5
:1044F0004FEA450C4CEAD5784FEA441C4CEAD469A3
:1045000080EA010C8CEA020CCC44DFF8909BCC448E
:10451000C4446344CDF814804FEA807C4CEA900098
:10452000DDF80CC0DDF838808CEA080CDDF820805E
:104530008CEA080CDDF818808CEA08054FEA450C77
:104540004CEAD5784FEA431C4CEAD36984EA000C64
:104550008CEA010CCC44DFF8449BCC44C444624454
:10456000CDF818804FEA847C4CEA9404DDF810C042
:10457000DDF83C808CEA080CDDF824808CEA080C1D
:10458000DDF81C808CEA08054FEA450C4CEAD5782A
:104590004FEA421C4CEAD26983EA040C8CEA000C14
:1045A000CC44DFF8F89ACC44C4446144CDF81C8074
:1045B0004FEA837C4CEA9303DDF814C0DDF80080F9
:1045C0008CEA080CDDF828808CEA080CDDF82080E5
:1045D0008CEA08054FEA450C4CEAD5784FEA411CB5
:1045E0004CEAD16982EA030C8CEA040CCC44DFF873
:1045F000AC9ACC44C4446044CDF820804FEA827C1D
:104600004CEA9202DDF818C0DDF804808CEA080C50
:10461000DDF82C808CEA080CDDF824808CEA080593
:104620004FEA450C4CEAD5784FEA401C4CEAD06979
:1046300081EA020C8CEA030CCC44DFF8609ACC448B
:10464000C4446444CDF824804FEA817C4CEA910153
:10465000DDF81CC0DDF808808CEA080CDDF830803D
:104660008CEA080CDDF828808CEA08054FEA450C36
:104670004CEAD5784FEA441C4CEAD46980EA010C34
:104680008CEA020CCC44DFF8149ACC44C444634452
:10469000CDF828804FEA807C4CEA9000DDF820C0FD
:1046A000DDF80C808CEA080CDDF834808CEA080C0C
:1046B000DDF82C808CEA08054FEA450C4CEAD578E9
:1046C0004FEA431C4CEAD36984EA000C8CEA010CE3
:1046D000CC44DFF8C899CC44C4446244CDF82C8063
:1046E0004FEA847C4CEA9404DDF824C0DDF81080A5
:1046F0008CEA080CDDF838808CEA080CDDF8308094
:104700008CEA08054FEA450C4CEAD5784FEA421C82
:104710004CEAD26983EA040C8CEA000CCC44DFF842
:104720007C99CC44C4446144CDF830804FEA837C0A
:104730004CEA9303DDF828C0DDF814808CEA080CFD
:10474000DDF83C808CEA080CDDF834808CEA080542
:104750004FEA450C4CEAD5784FEA411C4CEAD16946
:1047600082EA030C8CEA040CCC44DFF83099CC4488
:10477000C4446044CDF834804FEA827C4CEA920213
:10478000DDF82CC0DDF818808CEA080CDDF800801C
:104790008CEA080CDDF838808CEA08054FEA450CF5
:1047A0004CEAD5784FEA401C4CEAD06981EA020C09
:1047B0008CEA030CCC44DFF8E498CC44C444644451
:1047C000CDF838804FEA817C4CEA9101DDF830C0A9
:1047D000DDF81C808CEA080CDDF804808CEA080CFB
:1047E000DDF83C808CEA08054FEA450C4CEAD578A8
:1047F0004FEA441C4CEAD46980EA010C8CEA020CB2
:10480000CC44DFF89898CC44C4446344CDF83C8051
:104810004FEA807C4CEA9000DDF834C0DDF820805F
:104820008CEA080CDDF808808CEA080CDDF80080C2
:104830008CEA08054FEA450C4CEAD5784FEA431C50
:104840004CEAD36984EA000C8CEA010CCC44DFF812
:104850004C98CC44C4446244CDF800804FEA847C38
:104860004CEA9404DDF838C0DDF824808CEA080CAA
:10487000DDF80C808CEA080CDDF804808CEA080571
:104880004FEA450C4CEAD5784FEA421C4CEAD26913
:1048900083EA040C8CEA000CCC44DFF80098CC448A
:1048A000C4446144CDF804804FEA837C4CEA93030E
:1048B000DDF83CC0DDF828808CEA080CDDF81080BB
:1048C0008CEA080CDDF808808CEA08054FEA450CF4
:1048D0004CEAD5784FEA411C4CEAD16982EA030CD4
:1048E0008CEA040CCC44DFF8B497CC44C444604454
:1048F000CDF808804FEA827C4CEA9202DDF800C0D5
:10490000DDF82C808CEA080CDDF814808CEA080CA9
:10491000DDF80C808CEA08054FEA450C4CEAD578A6
:104920004FEA401C4CEAD06981EA020C8CEA030C85
:10493000CC44DFF86897CC44C4446444CDF80C8080
:104940004FEA817C4CEA9101DDF804C0DDF830804B
:104950008CEA080CDDF818808CEA080CDDF8108071
:104960008CEA08054FEA450C4CEAD5784FEA441C1E
:104970004CEAD46980EA010C8CEA020CCC44DFF8E2
:104980001C97CC44C4446344CDF810804FEA807C2B
:104990004CEA9000DDF808C0DDF834808CEA080CA1
:1049A000DDF81C808CEA080CDDF814808CEA080520
:1049B0004FEA450C4CEAD5784FEA431C4CEAD369E0
:1049C00084EA000C8CEA010CCC44DFF8D096CC448D
:1049D000C4446244CDF814804FEA847C4CEA9404C9
:1049E000DDF80CC0DDF838808CEA080CDDF820809A
:1049F0008CEA080CDDF818808CEA08054FEA450CB3
:104A00004CEAD5784FEA421C4CEAD26983EA040C9E
:104A10008CEA000CCC44DFF88496CC44C444614456
:104A2000CDF818804FEA837C4CEA9303DDF810C080
:104A3000DDF83C808CEA080CDDF824808CEA080C58
:104A4000DDF81C808CEA08054FEA450C4CEAD57865
:104A50004FEA411C4CEAD16982EA030C8CEA040C4F
:104A6000CC44DFF83896CC44C4446044CDF81C8074
:104A70004FEA827C4CEA92024FEA401C4CEAD06931
:104A800001EA020C41EA020808EA03084CEA080CB1
:104A9000CC44DFF80C86E044DDF814C0DDF800906B
:104AA0008CEA090CDDF828908CEA090CDDF82090DE
:104AB0008CEA09054FEA450C4CEAD57CCDF820C0BC
:104AC000C44464444FEA817C4CEA91014FEA441C9F
:104AD0004CEAD46900EA010C40EA010808EA02083D
:104AE0004CEA080CCC44DFF8B885E044DDF818C087
:104AF000DDF804908CEA090CDDF82C908CEA090CA6
:104B0000DDF824908CEA09054FEA450C4CEAD57C87
:104B1000CDF824C0C44463444FEA807C4CEA900042
:104B20004FEA431C4CEAD36904EA000C44EA00084B
:104B300008EA01084CEA080CCC44DFF86485E0443C
:104B4000DDF81CC0DDF808908CEA090CDDF8309027
:104B50008CEA090CDDF828908CEA09054FEA450C2F
:104B60004CEAD57CCDF828C0C44462444FEA847C2A
:104B70004CEA94044FEA421C4CEAD26903EA040C62
:104B800043EA040808EA00084CEA080CCC44DFF8C1
:104B90001085E044DDF820C0DDF80C908CEA090CAB
:104BA000DDF834908CEA090CDDF82C908CEA0905CC
:104BB0004FEA450C4CEAD57CCDF82CC0C444614486
:104BC0004FEA837C4CEA93034FEA411C4CEAD169DB
:104BD00002EA030C42EA030808EA04084CEA080C5B
:104BE000CC44DFF8BC84E044DDF824C0DDF810904C
:104BF0008CEA090CDDF838908CEA090CDDF830906D
:104C00008CEA09054FEA450C4CEAD57CCDF830C05A
:104C1000C44460444FEA827C4CEA92024FEA401C52
:104C20004CEAD06901EA020C41EA020808EA0308EA
:104C30004CEA080CCC44DFF86884E044DDF828C076
:104C4000DDF814908CEA090CDDF83C908CEA090C34
:104C5000DDF834908CEA09054FEA450C4CEAD57C26
:104C6000CDF834C0C44464444FEA817C4CEA9101DD
:104C70004FEA441C4CEAD46900EA010C40EA0108FE
:104C800008EA02084CEA080CCC44DFF81484E0443B
:104C9000DDF82CC0DDF818908CEA090CDDF80090E6
:104CA0008CEA090CDDF838908CEA09054FEA450CCE
:104CB0004CEAD57CCDF838C0C44463444FEA807CCC
:104CC0004CEA90004FEA431C4CEAD36904EA000C1A
:104CD00044EA000808EA01084CEA080CCC44DFF872
:104CE000C083E044DDF830C0DDF81C908CEA090C8C
:104CF000DDF804908CEA090CDDF83C908CEA09059B
:104D00004FEA450C4CEAD57CCDF83CC0C444624423
:104D10004FEA847C4CEA94044FEA421C4CEAD26984
:104D200003EA040C43EA040808EA00084CEA080C09
:104D3000CC44DFF86C83E044DDF834C0DDF820902B
:104D40008CEA090CDDF808908CEA090CDDF800907B
:104D50008CEA09054FEA450C4CEAD57CCDF800C039
:104D6000C44461444FEA837C4CEA93034FEA411CFC
:104D70004CEAD16902EA030C42EA030808EA040893
:104D80004CEA080CCC44DFF81883E044DDF838C066
:104D9000DDF824908CEA090CDDF80C908CEA090C03
:104DA000DDF804908CEA09054FEA450C4CEAD57C05
:104DB000CDF804C0C44460444FEA827C4CEA9202BD
:104DC0004FEA401C4CEAD06901EA020C41EA0208B1
:104DD00008EA03084CEA080CCC44DFF8C482E0443B
:104DE000DDF83CC0DDF828908CEA090CDDF8109065
:104DF0008CEA090CDDF808908CEA09054FEA450CAD
:104E00004CEAD57CCDF808C0C44464444FEA817CA8
:104E10004CEA91014FEA441C4CEAD46900EA010CC7
:104E200040EA010808EA02084CEA080CCC44DFF822
:104E30007082E044DDF800C0DDF82C908CEA090CAB
:104E4000DDF814908CEA090CDDF80C908CEA090569
:104E50004FEA450C4CEAD57CCDF80CC0C444634401
:104E60004FEA807C4CEA90004FEA431C4CEAD3693D
:104E700004EA000C44EA000808EA01084CEA080CBD
:104E8000CC44DFF81C82E044DDF804C0DDF830904B
:104E90008CEA090CDDF818908CEA090CDDF810900A
:104EA0008CEA09054FEA450C4CEAD57CCDF810C0D8
:104EB000C44462444FEA847C4CEA94044FEA421CA6
:104EC0004CEAD26903EA040C43EA040808EA000841
:104ED0004CEA080CCC44DFF8C881E044DDF808C097
:104EE000DDF834908CEA090CDDF81C908CEA090C92
:104EF000DDF814908CEA09054FEA450C4CEAD57CA4
:104F0000CDF814C0C44461444FEA837C4CEA930357
:104F10004FEA411C4CEAD16902EA030C42EA030859
:104F200008EA04084CEA080CCC44DFF87481E04439
:104F3000DDF80CC0DDF838908CEA090CDDF8209023
:104F40008CEA090CDDF818908CEA09054FEA450C4B
:104F50004CEAD57CCDF818C0C44460444FEA827C4A
:104F60004CEA92024FEA401C4CEAD06901EA020C7A
:104F700041EA020808EA03084CEA080CCC44DFF8CE
:104F80002081E044DDF810C0DDF83C908CEA090C8B
:104F9000DDF824908CEA090CDDF81C908CEA0905F8
:104FA0004FEA450C4CEAD57CCDF81CC0C44464449F
:104FB0004FEA817C4CEA91014FEA441C4CEAD469E7
:104FC00000EA010C40EA010808EA02084CEA080C71
:104FD000CC44DFF8CC80E044DDF814C0DDF800906C
:104FE0008CEA090CDDF828908CEA090CDDF8209099
:104FF0008CEA09054FEA450C4CEAD57CCDF820C077
:10500000C44463444FEA807C4CEA90004FEA431C5E
:105010004CEAD36904EA000C44EA000808EA0108F3
:105020004CEA080CCC44DFF87880E044DDF818C086
:10503000DDF804908CEA090CDDF82C908CEA090C60
:10504000DDF824908CEA09054FEA450C4CEAD57C42
:10505000CDF824C0C44462444FEA847C4CEA9404F2
:105060004FEA421C4CEAD26903EA040C43EA040802
:1050700008EA00084CEA080CCC44DFF82480E0443D
:10508000DDF81CC0DDF808908CEA090CDDF83090E2
:105090008CEA090C06E000009979825AA1EBD96EDE
:1050A000DCBC1B8FDDF828908CEA09054FEA450C23
:1050B0004CEAD57CCDF828C0C44461444FEA837CD7
:1050C0004CEA93034FEA411C4CEAD16902EA030C13
:1050D00042EA030808EA04084CEA080CCC44DFF86A
:1050E0006886E044DDF820C0DDF80C908CEA090CFD
:1050F000DDF834908CEA090CDDF82C908CEA090577
:105100004FEA450C4CEAD57CCDF82CC0C444604431
:105110004FEA827C4CEA9202DDF824C0DDF8108070
:105120008CEA080CDDF838808CEA080CDDF8308059
:105130008CEA08054FEA450C4CEAD5784FEA401C4A
:105140004CEAD06981EA020C8CEA030CCC44DFF80B
:10515000FC95CC44C4446444CDF830804FEA817C53
:105160004CEA9101DDF828C0DDF814808CEA080CC7
:10517000DDF83C808CEA080CDDF834808CEA080508
:105180004FEA450C4CEAD5784FEA441C4CEAD46906
:1051900080EA010C8CEA020CCC44DFF8B095CC44D8
:1051A000C4446344CDF834804FEA807C4CEA9000DC
:1051B000DDF82CC0DDF818808CEA080CDDF80080E2
:1051C0008CEA080CDDF838808CEA08054FEA450CBB
:1051D0004CEAD5784FEA431C4CEAD36984EA000CC8
:1051E0008CEA010CCC44DFF86495CC44C44462449E
:1051F000CDF838804FEA847C4CEA9404DDF830C066
:10520000DDF81C808CEA080CDDF804808CEA080CC0
:10521000DDF83C808CEA08054FEA450C4CEAD5786D
:105220004FEA421C4CEAD26983EA040C8CEA000C77
:10523000CC44DFF81895CC44C4446144CDF83C809C
:105240004FEA837C4CEA9303DDF834C0DDF820801C
:105250008CEA080CDDF808808CEA080CDDF8008088
:105260008CEA08054FEA450C4CEAD5784FEA411C18
:105270004CEAD16982EA030C8CEA040CCC44DFF8D6
:10528000CC94CC44C4446044CDF800804FEA827C86
:105290004CEA9202DDF838C0DDF824808CEA080C74
:1052A000DDF80C808CEA080CDDF804808CEA080537
:1052B0004FEA450C4CEAD5784FEA401C4CEAD069DD
:1052C00081EA020C8CEA030CCC44DFF88094CC44D5
:1052D000C4446444CDF804804FEA817C4CEA9101D7
:1052E000DDF83CC0DDF828808CEA080CDDF8108081
:1052F0008CEA080CDDF808808CEA08054FEA450CBA
:105300004CEAD5784FEA441C4CEAD46980EA010C97
:105310008CEA020CCC44DFF83494CC44C44463449B
:10532000CDF808804FEA807C4CEA9000DDF800C0A0
:10533000DDF82C808CEA080CDDF814808CEA080C6F
:10534000DDF80C808CEA08054FEA450C4CEAD5786C
:105350004FEA431C4CEAD36984EA000C8CEA010C46
:10536000CC44DFF8E893CC44C4446244CDF80C80CC
:105370004FEA847C4CEA9404DDF804C0DDF8308008
:105380008CEA080CDDF818808CEA080CDDF8108037
:105390008CEA08054FEA450C4CEAD5784FEA421CE6
:1053A0004CEAD26983EA040C8CEA000CCC44DFF8A6
:1053B0009C93CC44C4446144CDF810804FEA837C74
:1053C0004CEA9303DDF808C0DDF834808CEA080C61
:1053D000DDF81C808CEA080CDDF814808CEA0805E6
:1053E0004FEA450C4CEAD5784FEA411C4CEAD169AA
:1053F00082EA030C8CEA040CCC44DFF85093CC44D2
:10540000C4446044CDF814804FEA827C4CEA920296
:10541000DDF80CC0DDF838808CEA080CDDF820805F
:105420008CEA080CDDF818808CEA08054FEA450C78
:105430004CEAD5784FEA401C4CEAD06981EA020C6C
:105440008CEA030CCC44DFF80493CC44C444644499
:10545000CDF818804FEA817C4CEA9101DDF810C04C
:10546000DDF83C808CEA080CDDF824808CEA080C1E
:10547000DDF81C808CEA08054FEA450C4CEAD5782B
:105480004FEA441C4CEAD46980EA010C8CEA020C15
:10549000CC44DFF8B892CC44C4446344CDF81C80BB
:1054A0004FEA807C4CEA9000DDF814C0DDF8008003
:1054B0008CEA080CDDF828808CEA080CDDF82080E6
:1054C0008CEA08054FEA450C4CEAD5784FEA431CB4
:1054D0004CEAD36984EA000C8CEA010CCC44DFF876
:1054E0006C92CC44C4446244CDF820804FEA847C62
:1054F0004CEA9404DDF818C0DDF804808CEA080C4E
:10550000DDF82C808CEA080CDDF824808CEA080594
:105510004FEA450C4CEAD5784FEA421C4CEAD26976
:1055200083EA040C8CEA000CCC44DFF82092CC44D3
:10553000C4446144CDF824804FEA837C4CEA930351
:10554000DDF81CC0DDF808808CEA080CDDF830803E
:105550008CEA080CDDF828808CEA08054FEA450C37
:105560004CEAD5784FEA411C4CEAD16982EA030C37
:105570008CEA040CCC44DFF8D491CC44C44460449D
:10558000CDF828804FEA827C4CEA9202DDF820C0F8
:10559000DDF80C808CEA080CDDF834808CEA080C0D
:1055A000DDF82C808CEA08054FEA450C4CEAD578EA
:1055B0004FEA401C4CEAD06981EA020C8CEA030CE9
:1055C000CC44DFF88891CC44C4446444CDF82C80AA
:1055D0004FEA817C4CEA9101DDF824C0DDF81080AF
:1055E0008CEA080CDDF838808CEA080CDDF8308095
:1055F0008CEA08054FEA450C4CEAD5784FEA441C82
:105600004CEAD46980EA010C8CEA020CCC44DFF845
:105610003C91CC44C4446344CDF830804FEA807C54
:105620004CEA9000DDF828C0DDF814808CEA080C04
:10563000DDF83C808CEA080CDDF834808CEA080543
:105640004FEA450C4CEAD5784FEA431C4CEAD36943
:1056500084EA000C8CEA010CCC44DFF8F090CC44D6
:10566000C4446244CDF834804FEA847C4CEA94040C
:10567000DDF82CC0DDF818808CEA080CDDF800801D
:105680008CEA080CDDF838808CEA08054FEA450CF6
:105690004CEAD5784FEA421C4CEAD26983EA040C02
:1056A0008CEA000CCC44DFF8A490CC44C4446144A0
:1056B000CDF838804FEA837C4CEA9303DDF830C0A4
:1056C000DDF81C808CEA080CDDF804808CEA080CFC
:1056D000DDF83C808CEA08054FEA450C4CEAD578A9
:1056E0004FEA411C4CEAD16982EA030C8CEA040CB3
:1056F000CC44DFF85890CC44C4446044CDF83C809E
:105700004FEA827C4CEA9202D7F808C08444C7F87A
:1057100008C0D7F80CC00CEB0108C7F80C80D7F80C
:1057200010C00CEB0208C7F81080D7F814C00CEBBF
:105730000308C7F81480D7F818C00CEB0408C7F8A2
:10574000188010B0BDE8F083DCBC1B8FD6C162CAE4
:1057500000210160416006498160064AC260CA4377
:105760000261044AD2434261034A826170470000E9
:105770000123456789ABCDEFF0E1D2C32DE9F041BC
:105780000446884615460DB9BDE8F081207800F042
:105790003F07C7F140062068284420602068206049
:1057A0002068A84202D26068401C606087B1B542A0
:1057B0000ED304F11C01C81932464146FAF7B2FC77
:1057C00004F11C012046FEF735FBB044AD1B002759
:1057D00006E041462046FEF72DFB08F14008403D1B
:1057E000402DF6D235B104F11C01C8192A464146B4
:1057F000FAF798FC00BFC7E7800000000000000037
:105800000000000000000000000000000000000098
:105810000000000000000000000000000000000088
:105820000000000000000000000000000000000078
:105830000000000000000000585800080000002090
:105840005C0D0000F00600089C6000085C0D002064
:1058500004410000042D000815030D261C84A24AF3
:1058600004A80901020304060708091069140513B6
:105870000204060872F852331C100C0603912C40E7
:10588000C07803112C043F040321367088FC0830D3
:10589000261820FF211E14F008F033E0184D211CBB
:1058A000031E11338870000C101E21232419272198
:1058B0001010160E45E018040225071820403D027E
:1058C0000418E0692C20180707174080F08040403A
:1058D0003F0202010F0102283AF0C81C01011F0417
:1058E000912B80B066B1191D2901912A30A5592C40
:1058F000146018043C6018061D1EE01008081072A1
:105900001F0F102020100FF05310F83620203F20DA
:10591000203C700808C21E3028242221441E300872
:10592000888848082E1820202011CC3BC020322720
:10593000070424243F241AF8202308084B192120A7
:1059400036E0108888184B0F11101E380808C83828
:105950002021523F1A702E29608F1C222121221CE7
:1059600090111D31222211901961CAC0C26A80C6ED
:1059700059081C40201050170102040810204A400A
:1059800001114A04012119152A403219251B04026C
:10599000F21B7048D13AF0501A360F1EC030C8289A
:1059A000E87028080718272423140B6F2A387E284C
:1059B0000D203C23020227382008F888889F4B20BE
:1059C0003FF01BC0303F1B083830191019781B08F6
:1059D000F80F194039201B100F103E8888E8081076
:1059E00010AC23201810112A035E294022382940C8
:1059F0002C221E024019A41809F808203F21010199
:105A000021252A0852298129424149112EC080802E
:105A1000807F0E2FF888C0281808501C0126382FC8
:105A20002940292F29801B20301012F81AF814134E
:105A3000203F190229204B30C0601A2074123F4BBE
:105A4000E010B06B0F10B029D01AF030198022018D
:105A500079203F18242438504FC04C888870C014D7
:105A60000C30204B7088C11738202121221C3A1895
:105A70009F4A188239A049D0112A1F90121F24086A
:105A800078881BC838151C07380E60191A1AF820B8
:105A90001114033C0714073C03481408186880805D
:105AA00068180820302C03032C30200838C82F59E0
:105AB00050298F29102F203826212020681145FEDB
:105AC000020202257F4040401A0CE0611C010638AA
:105AD0000B191D42FE191D527F1A04120211045A9D
